:020000040800F2
:1000000000000120B9030008B9BA000889AC000853
:10001000B1BA000871140008810101080000000055
:1000200000000000000000000000000079BF000890
:10003000011700080000000051BC000881BF000843
:10004000D3030008D3030008D3030008D303000838
:10005000D3030008D3030008D3030008D303000828
:10006000D3030008D3030008D30300089915000840
:10007000A9150008B9150008C9150008D303000820
:10008000D3030008D3030008D3030008D3030008F8
:10009000D3030008D3030008D3030008D3030008E8
:1000A000D3030008D3030008D3030008D3030008D8
:1000B000D3030008D3030008D3030008D3030008C8
:1000C000D3030008D3030008D3030008D3030008B8
:1000D000D3030008D3030008D3030008D3030008A8
:1000E000D3030008D303000800000000D303000876
:1000F000D3030008D3030008D3030008D303000888
:10010000D3030008D3030008D3030008D303000877
:10011000D3030008D3030008D3030008D303000867
:10012000D3030008D3030008D3030008D303000857
:10013000D3030008D3030008D3030008D303000847
:1001400000000000000000000000000000000000AF
:10015000D3030008D3030008D3030008D303000827
:10016000D3030008D3030008D3030008D303000817
:10017000D3030008C1BA0008D30300080000000040
:10018000D3030008D3030008C9C20008D303000842
:10019000D3030008D3030008D3030008D3030008E7
:1001A000D3030008D3030008D303000800000000B5
:1001B000D3030008D3030008D3030008D3030008C7
:1001C000D3030008D3030008000000000000000073
:1001D0000000000000000000D30300080000000041
:1001E000000000000000000000000000000000000F
:1001F0000000000000000000D3030008D303000843
:10020000D3030008D303000800000000D303000854
:1002100011C1000821C1000831C10008D303000842
:10022000D303000800000000D30300080000000012
:10023000D3030008D303000800000000D303000824
:10024000D3030008D3030008D3030008D303000836
:10025000D3030008D3030008D3030008D303000826
:10026000D3030008D3030008D3030008D303000816
:10027000D3030008D3030008D303000800000000E4
:10028000D3030008D3030008D3030008D3030008F6
:1002900000000000D3030008D303000800000000A2
:1002A00000000000D3030008D3030008D3030008B4
:1002B000A1D90008D3030008D3030008D303000822
:1002C000D3030008D3030008D303000800F002F8AA
:1002D00000F062F814A696E8000CB244B344DA4584
:1002E00001D100F059F8BAE80F000FA696E83000E7
:1002F000A5EB040504EB0607AAEB0704A7F1010729
:100300004FEA15154FEA3414A4F10104AC4201D3AD
:1003100000F042F813F0010F18BFFB1A43F001037D
:1003200000F001F8DBE718473830010068300100C1
:10033000103A24BF78C878C1FAD8520724BF30C811
:1003400030C144BF04680C60704700007047000073
:100350000023002400250026103A28BF78C1FBD8CE
:10036000520728BF30C148BF0B607047662912F0A2
:100370009B86642900F0CC80002070471FB512F0E6
:1003800056FE00F005FD04000020002112F0ECFDF7
:10039000E0601FBD10B510BD00F0FEFD1146FFF777
:1003A000EDFF10F041FE00F01CFE03B4FFF7F2FF7A
:1003B00003BC00F05FFE0000094880470948004781
:1003C000FEE7FEE7FEE7FEE7FEE7FEE7FEE7FEE705
:1003D000FEE7FEE704480549054A064B7047000062
:1003E00061C00008CD020008D032002400000120C6
:1003F000D05200240000002053EA020C00F0698073
:100400002DE9F04B4FF00006002B1FBFB3FA83F528
:1004100003FA05F424FA05F65E4012BF1643B2FA59
:1004200082F502FA05F4C5F120051EBF22FA05FC8B
:1004300044EA0C04203556EA044C4FEA144418BF31
:10044000641C4FF000084FF00009904271EB030C60
:1004500039D3002919BFB1FA81F701FA07F6B0FACA
:1004600080F700FA07F6C7F120071EBF20FA07FC45
:1004700046EA0C062037B6FBF4FCA7EB0507103F55
:1004800007F01F0BCBF120062CFA06F60CFA0BFB3B
:1004900044BFB3460026202FA4BF5E464FF0000B9A
:1004A0005BEA060C08BF4FF0010B19EB0B0948EB98
:1004B0000608ABFB027C06FB02CC0BFB03CCC01B8B
:1004C00071EB0C01C1E70B46024641464846BDE8C8
:1004D000F08B13B5084318BF4FF0FF300146AFF360
:1004E0000080BDE81C4070470FB41CB5074B06AA3E
:1004F0007B4469460090059800F0FFFB00206946A8
:1005000000F00EFC1CBC5DF814FB00002D08000080
:100510002DE9F0410646002410687529314616A5DC
:1005200010D0AFF30080002802DA404213A507E0A4
:1005300031688A0701D512A502E0490704D511A543
:10054000012401E0AFF3008000210A2206F1240714
:1005500009E0B0FBF2FCB0FBF2F302FB1C00303010
:1005600078541846491C0028F3D123462A463046C1
:10057000BDE8F04100F054B9000000002D0000007B
:100580002B000000200000002DE9F0474FF0000A8A
:1005900089460446C0F820A02046E1688847002824
:1005A00076D0252806D0D4E901219047206A401C46
:1005B0002062F1E7E168204600258847C4F81CA0C6
:1005C00006460027C4F818A02A2E09D0304612F09B
:1005D0007BFC38B304EB8708303EC8F8186019E09C
:1005E00059F8041B204604EB87029161E1688847B3
:1005F000012F064618D1E069002820DA25F02005F1
:100600001DE0D8F8180000EB800006EB4000303801
:10061000C8F818002046E1688847064612F054FCE6
:100620000028EED1012F0AD02E2E08D12046E168F5
:1006300088477F1C0646022F45F02005C4DBA069D1
:10064000002803DA404245F00105A061E80701D027
:1006500025F01005B6B1A6F14100192802D82036C0
:1006600045F400654A463146204625604D46FFF771
:100670007DFE58B1012806D0ED1D25F0070000F1E0
:10068000080989E704E005F1040985E730468AE7AF
:10069000206ABDE8F08740EA010310B59B070FD13F
:1006A000042A0DD310C808C9121F9C42F8D020BAE2
:1006B00019BA884201D9012010BD4FF0FF3010BD9A
:1006C0001AB1D30703D0521C07E0002010BD10F868
:1006D000013B11F8014B1B1B07D110F8013B11F82E
:1006E000014B1B1B01D1921EF1D1184610BD10B554
:1006F000431C02E010F8011B71B18107FAD14FF0E1
:10070000013202C88C1A8C4314EAC211F9D0C01A03
:100710000A0603D0C01E10BDC01A10BD0A0401D0C5
:10072000801E10BD0902FCD0401E10BD032A40F2FD
:10073000308010F0030C00F0158011F8013BBCF183
:10074000020F624498BF11F801CB00F8013B38BF9B
:1007500011F8013BA2F1040298BF00F801CB38BFA9
:1007600000F8013B11F0030300F0DF82083AC0F00B
:10077000088051F8043B083A51F804CBA0E808106F
:10078000F5E7121D5CBF51F8043B40F8043BAFF3A2
:100790000080D20724BF11F8013B11F801CB48BFFC
:1007A00011F8012B24BF00F8013B00F801CB48BF32
:1007B00000F8012B70474FF0000200B51346944635
:1007C0009646203922BFA0E80C50A0E80C50B1F1A9
:1007D0002001BFF4F7AF090728BFA0E80C5048BFBD
:1007E0000CC05DF804EB890028BF40F8042B08BF5B
:1007F000704748BF20F8022B11F0804F18BF00F857
:10080000012B704770477047704710B500F0C4FA6D
:10081000006810BD10B5044600F0BEFA046010BDBB
:100820002DE9F0470D4699469246044600F124080A
:100830000168880604D5E06921F01001216000E01C
:100840000120A84201DD471B00E00027A1697A19B9
:1008500002EB0900081AA0612078C00602D42046E5
:10086000AFF30080002608E0D4E901211AF8060061
:100870009047206A401C761C20624E45F4DB2078AD
:10088000C0060AD52046AFF3008006E0D4E9012176
:1008900030209047206A401C2062381EA7F10107D3
:1008A000F4DC07E0D4E9012118F805009047206A3C
:1008B000401C2062281EA5F10105F3DC2046AFF3A1
:1008C00000802078000602D50220BDE8F0870120D4
:1008D000FBE72DE9FF4F0C461E464FF0FF378BB06C
:1008E000D2E90001DDF860800A908A46C1F30A551A
:1008F00005B93D46002108464FF00000BAF1000F4F
:1009000000F4400005DA00EB80004FF4400101EAFA
:1009100050004FEA9059B9F1010F00DDB9460A982D
:1009200050EA4A000ED044F61050A5F2FF35454378
:100930002F14B8F1000F1ED07542291E1EDDC9F11B
:1009400000021CE0B8F1010F4FF0000001D030218F
:1009500003E0F24305E02154401CB042FBDB30468B
:100960000022002121540B99C1F80880C1E9002020
:100970000FB0BDE8F08FBD1B6D1CDEE74A4600DA04
:10098000694206A800F092FA06AB93E8070003ABB1
:1009900083E8070050460A9911F06FFB8DE80700C5
:1009A000A0F500501F3800900398002D0ADD42F298
:1009B0001F014A460844002303A90390684611F02A
:1009C000D9FD09E0A0F500504A461F38002303A9CD
:1009D0000390684611F0E3FD8DE807000004000C69
:1009E00003D04FF0FF30410800E01046B8F1000F8F
:1009F00003D00022009215461EE0751E05D400F0BB
:100A0000CFF9303262556D1EF9D5B3460122084345
:100A100002D000227F1C04E02078302801D100227F
:100A20007F1E002A099784D01DE0112D07DA00F0FF
:100A3000B7F9303262556D1C50EA0102F5D1084316
:100A400002D00098C8B10EE00021681E05E0235CCA
:100A5000625C63542254401E491C8142F7DBAB4662
:100A6000A81B401E0990002004F80B000B98099A5F
:100A7000C0F80880C0E9002B7AE711264FF0000883
:100A800057E72DE9F04F88460446D21D22F00701B2
:100A900091B0D1E90001CDE90A0111F0B7FE02469B
:100AA0000B98C00F01D02D2007E02068810701D5E9
:100AB0002B2002E0202101EAC000032A099001D086
:100AC000072A05DB03464146204600F0AFF90BE15B
:100AD0002078800601D5E06900E00620B8F1650FB6
:100AE000814606D0B8F1660F18D0B8F1670F70D103
:100AF00031E00020B9F1110F009001DB112301E07A
:100B000009F101030AAA01A90CA8FFF7E2FEDDE939
:100B10000C70002609F10105834647E001204B4691
:100B200000904FF000470AAA01A90CA8FFF7D1FED8
:100B3000DDE90DB00C995D46002610B909F1010000
:100B40000D18B9EB050003D4C0F1FF3609F101051A
:100B5000A5EB09002BE0B9F1010F01DA4FF0010913
:100B60000020B9F1110F0090484601DD112300E08B
:100B700003460AAA01A90CA8FFF7ABFEDDE90C7039
:100B80004D4600268346207800070AD4AB4500DA9C
:100B90005D4601A8012D04DD411911F8011C302921
:100BA00007D04F4502DA17F1040F04DA012082461C
:100BB0000FE06D1EEEE7002F02DCED1B3E4403E06C
:100BC000781CA84200DD7D1CB81B00F1010A4FF023
:100BD00000472078000703D4AA4501DB4FF0FF3A15
:100BE0000021B7F1004F0DF143088DF8431024D0D8
:100BF00002202B23002F01DA7F422D230A21021E1F
:100C0000A0F1010000DC5FB197FBF1FC97FBF1F272
:100C100001FB1C7C17460CF1300C08F801CDEEE707
:100C2000A8F1010003702188090501D5452100E0E4
:100C30006521A0F1010800F8011C09980FA9A1EB9A
:100C40000807FF1D00B10120411901EBEA70A169FD
:100C50003844081A401EA0612078C00602D42046FD
:100C6000AFF30080099828B1D4E901219047206AA8
:100C7000401C20622078C00622D52046AFF30080B9
:100C80001EE0002E04DBB34502DD01A8805D00E01C
:100C90003020D4E901219047206A401C2062761C54
:100CA000AAF101005FEA000A0AD100F071F8C068F9
:100CB0000168405CD4E901219047206A401C206211
:100CC000281EA5F10105DCDC07E0D4E9012118F8B4
:100CD000010B9047206A401C2062381EA7F10107D3
:100CE000F3DC2046AFF30080032011B041E60000A2
:100CF00001694A1C02610878704700B58FB0CDE9E0
:100D000001310021059105497944CDE903101146CF
:100D10006846FFF739FC0FB000BD0000E5FFFFFF9C
:100D20000A6802F8010B0A60704710B5203AC0F05B
:100D30000B80B1E81850A0E81850B1E81850A0E8AE
:100D40001850203ABFF4F5AF5FEA027C24BFB1E847
:100D50001850A0E8185044BF18C918C0BDE810408A
:100D60005FEA827C24BF51F8043B40F8043B08BF93
:100D70007047D20728BF31F8023B48BF11F8012B5A
:100D800028BF20F8023B48BF00F8012B7047000045
:100D900000487047400100240048704720010024AB
:100DA00030B5B0F10A0271F100034FEA900E4EEA3D
:100DB000817EB0EB0E0061EB91014FEA101E4EEA0E
:100DC000017E10EB0E0041EB11114FEA102E4EEA9E
:100DD000016E10EB0E0041EB11214FEA104E4EEA6E
:100DE000014E10EB0E0041EB1141401841F10001A2
:100DF0004FEAD00040EA41704FEAD1014FEA810446
:100E000044EA907410EB800544EB01046D1944EB47
:100E10000404521BA3414FF0000348BF0A3200D51F
:100E200030BD401C41F1000130BD00002DE9F04112
:100E30001F46044603260168072A01F4006004DB0C
:100E400008B116A505E016A503E008B115A500E058
:100E500015A521F010002060A069C01EA0610FB18F
:100E6000401EA0612046AFF300804FB1D4E90121BC
:100E700038469047206A401C2062C01C206206E071
:100E8000206AFAE7D4E9012115F8010B9047761E94
:100E9000F8D22046AFF30080BDE8F0814E414E000D
:100EA0006E616E00494E4600696E66002DE9F0479E
:100EB000814616468AB0354878440DC88DE80D0045
:100EC00032487844801C03AC0DC884E80D0041F61C
:100ED0009B300844372190FBF1F290FBF1F5A5F12E
:100EE000800501FB12041B3C02D56442012000E096
:100EF0000020DFF898A080460027FA44AAF1BE0A35
:100F00000EE0E0070AD03246684607EB47010123AE
:100F10000AEB810111F043FB8DE8070064107F1C90
:100F2000002CEED1194F7F44AE3F19E0E80715D0F1
:100F300007EB04100DF1180A90E80E008AE80E0085
:100F4000C068F04201D1981908903246012306A9E1
:100F500003A811F024FB03AB83E807006D10641CA9
:100F6000002DE3D14FF0010332466946B8F1000F7E
:100F700003A802D011F0FEFA01E011F010FBC9E95C
:100F80000001C9F808200AB0BDE8F087602301001D
:100F900000487047200100247546FFF7F9FFAE4670
:100FA00005006946534620F00700854618B020B575
:100FB000FFF710FABDE820404FF000064FF00007A1
:100FC0004FF000084FF0000BAC46ACE8C009ACE8AD
:100FD000C009ACE8C009ACE8C00921F007018D46A2
:100FE000704710B50446AFF300802046BDE81040BE
:100FF000FFF7DBB90000000030B44FF0013C50F8BF
:10100000042BCCFA52F451F8043BD51A20D1FCB988
:1010100050F8042BCCFA52F451F8043BD51A17D1EE
:10102000B4B950F8042BCCFA52F451F8043BD51A59
:101030000ED16CB950F8042BCCFA52F451F8043BA1
:10104000D51A05D1002CDAD030BC4FF00000704723
:1010500029BAB1FA81F111F01801D1F120008440D0
:10106000F2D1CA40CB4012F0FF0213F0FF0330BCB4
:10107000D01A704701491820ABBEFEE726000200D7
:10108000704700000000000010B50446006842F2FE
:10109000001140F48070C4F20201884218D142F27B
:1010A0000830C4F20200006810F4403F18D005F088
:1010B00067FF6168B1F5803F05D0B1F5403F2BD0A7
:1010C000B1F5003F29D1090CB0FBF1F025E000BFDC
:1010D00046F20830C5F60200006810F4403FE6D141
:1010E0004FF40020002104F0F3FE6168A1F5802296
:1010F0004FEAB2420A2A10D8DFE802F006060606D6
:101100000606403E443C42006FF0010202EA5141B3
:10111000B0FBF1F001E000BF80084BF62141C0F2C6
:10112000BE01884206D82068816821F44071816040
:1011300010BD00BF47F64101C0F27D11884207D8BB
:1011400020680122816862F30921816010BD00BF1F
:1011500021684FF28102C0F2FA229042886805D8D5
:10116000022262F30920886010BD00BF40F4407085
:10117000886010BDC009D0E74009CEE70009CCE780
:10118000000ACAE78009C8E740F600000121C5F659
:101190000200012202F0B0BE40F600000121C5F6B7
:1011A0000200002202F0A8BE70470000000000000C
:1011B00040F600000821C5F60200012202F09CBEA4
:1011C00040F600000821C5F60200002202F094BE9D
:1011D0007047000000000000002808BF704710B5ED
:1011E0004EF2180145F2003CCEF20001C0F2070CAD
:1011F00003E000BF013802041AD051F804EC0B6878
:10120000002208E01A449C42A2EB0402234628BFB5
:1012100072446245EED20C689C42F3D10C689C4249
:1012200004BF0C689C42EDD10C689C42F3D0E9E706
:10123000BDE810407047000080B54EF21801C0EBC9
:101240000010CEF200014FEA401E002351F804CCFA
:101250000A6808E013449042A3EB0003024628BF4B
:10126000634473450CD208689042F3D108689042F9
:1012700004BF08689042EDD108689042F3D0E9E7D6
:1012800080BD00000000000010B5FFF78DFFFFF7E4
:101290009FFF0FF0D1F804460FF0FAF9204310BD7C
:1012A0002DE9F04F83B002920E460190FFF774FFD4
:1012B000922000F0C5F8922000F0C2F8552000F00E
:1012C000BFF88046552000F0BBF88346552000F05B
:1012D000B7F88246552000F0B3F80446552000F0D8
:1012E000AFF80746552000F0ABF80546FFF74CFF76
:1012F00048EA0B2040F2000900B2C2F2004900EEB9
:10130000100A4AEA042000B299ED001AB8EEC00AA9
:1013100021EE000A01EE100A47EA052086ED000AD8
:1013200000B299ED002A00EE100AB8EEC11AB8EE2C
:10133000C00A22EE011A86ED011A22EE000A86ED9D
:10134000020AFFF73DFF802000F07AF8552000F0F8
:1013500077F80646552000F073F8552000F070F835
:101360008246552000F06CF80546552000F068F8DC
:101370008346552000F064F80446552000F060F8DC
:101380000746552000F05CF88046FFF711FF0F2E4E
:1013900025D14AEA052099ED011A00B2019900EE23
:1013A000100A4BEA042000B2B8EEC00A21EE000A8F
:1013B00001EE100A47EA082081ED000A00B299ED1B
:1013C000012A00EE100AB8EEC11AB8EEC00A22EEE9
:1013D000011A81ED011A22EE000A81ED020AFFF7DF
:1013E000DBFEA22000F02CF8A22000F029F8552006
:1013F00000F026F80446552000F022F80546FFF7D5
:10140000C3FEE0004FF6000340EA55110022CFF67C
:10141000FF73B2EB902F18BF1943B4EE001AB3EE6E
:10142000072A00EE101A0298B8EEC00AA0EE012AB0
:1014300080ED002A03B0BDE8F08F0000000000003E
:1014400080B582B08DF8070042F65C00C2F2004021
:101450000DF107010DF1060201234FF47A7CCDF85E
:1014600000C006F02DFC9DF8060002B080BD000013
:10147000FEE70000000000000020704700000000B0
:10148000002070470000000010B541F60C4441F206
:101490000041C2F20044C2F20041002220460CF09A
:1014A00057FC40F600412046C2F200410CF040FCDF
:1014B000002010BD0000000010B541F60C440146AC
:1014C000C2F2004420460CF033FC20460CF00CFC29
:1014D000002010BD00000000002070470000000048
:1014E0002DE9F04143F2C42688460446FF27002533
:1014F000C0F60106611903223046FFF7CCF8002838
:1015000008BF2F4601357FB2332DF3D1B7F1FF3F2E
:1015100013DD54FA87F0D0F80210D0F80620D0F886
:101520000A30C8F80830FBB2C8F80420C8F8001028
:101530000021E1504160816081810020BDE8F0819F
:101540002DE9F04143F2C72688460446FF270025CF
:10155000C0F60106611903223046FFF79CF8002807
:1015600008BF2F4601357FB2272DF3D1B7F1FF3FDA
:101570000FDD54FA87F51822A91C4046FEB2FFF78A
:10158000D5F80020A0516860A860E8602861686113
:1015900028830020BDE8F08141F67C70C2F2004053
:1015A00001F0DEB90000000041F6F470C2F2004024
:1015B00001F0D6B90000000042F26C00C2F2004017
:1015C00001F0CEB90000000042F2E400C2F2004097
:1015D00001F0C6B90000000040F20F42D0F800C090
:1015E000C4F20202944511DC6F22C4F20202944557
:1015F00022DC3F22C4F20202944539DC1022C4F2FC
:10160000020294455AD0282254E000BF40F26F42B3
:10161000C4F2020294451BDC40F23F42C4F20202D3
:1016200094452DDC40F21042C4F20202944545D0AC
:1016300040F228423EE000BF9F22C4F202029445DD
:1016400028DC7022C4F20202944537D0882231E0AF
:1016500040F29F42C4F20202944523DC40F2704201
:10166000C4F20202944529D040F2884222E000BF31
:101670004022C4F20202944520D058221AE000BF52
:1016800040F24042C4F20202944517D040F2584260
:1016900010E000BFA022C4F2020294450ED0B8228E
:1016A00008E000BF40F2B842C4F20202944505D0FF
:1016B00040F2A042C4F20202944517D10CF0F802A5
:1016C0004AF6AB23103ACAF6AA23A2FB03310AA3B7
:1016D0005F2AC1F302115B5C40F2FF312CEA010189
:1016E000C36588BF04318165084670472CF0FF014F
:1016F00081650846704700BF0006101600061016E8
:101700007047000000000000EFF3108072B600BFC9
:10171000FEE700000000000090F85C20012A01D1E3
:1017200002207047B0B582B042F208320023019324
:10173000C4F202020093A2F542740368A34227D1C7
:101740004FF6006C4FF60055CFF6FF7CCFF6FF75D5
:1017500052F80C40535923435B0719D4D1F800E0E9
:101760001368BEF1000F23F440441FD04B6823439D
:101770001360535952F80C502B43DB0722D11368E6
:1017800040F61F75AB438968194341EA0E0118E022
:10179000016E41F0200101660121002280F85C20E9
:1017A00002B0BDE8B0400846704700BF1460515910
:1017B00052F80C301943C90704D1116840F61F7361
:1017C000994311600021E8E72DE9F04381B0002240
:1017D000009290F85C20012A04D10221084601B051
:1017E000BDE8F0830368012280F85C209A68520704
:1017F00000F1148246F2083C4FF6FF7EC5F6020C5B
:10180000C0F20F0EACF542780C68434516D0B4F127
:10181000FF3F13DD94FAA4F514EA0E0FB5FA85F52F
:101820004FF0010608BFA50EA40E05F01F0506FA2D
:1018300005F5DE693543DD6101E000BFA40E4D68AA
:101840001F2204F01F04C5F3012605F01F05AA405E
:1018500003EB8606AC40376B27EA02022243326371
:101860009A689C6802F0040204F00804121940F01F
:1018700004810A6807268D684345C2F34064C2F3B9
:10188000045203EB840406FA02F6676905FA02F2D1
:1018900027EA060642EA0602626117D041F2000218
:1018A000C5F60042126802F07042B2F1805F73D157
:1018B0004A69DC680E2505EA540402FA04F90C6949
:1018C0004F46042C00F08280A8E000BF4FF604527F
:1018D000CFF6FF72D1E90445042C5CF8026065D1B3
:1018E0004FF65852CFF6FF725CF802201A6E0E685F
:1018F000C2F3846216EA0E04C6F3846596FAA6F66D
:10190000B6FA86F6374608BF2F46BA420CD11A6E91
:1019100022F000421A660A6802EA0E04C2F38465E5
:1019200092FAA2F2B2FA82F65A6E37465A6E002C3A
:1019300008BF2F46C2F38462BA420CD15A6E22F01D
:1019400000425A660A6802EA0E04C2F3846592FAFB
:10195000A2F2B2FA82F69A6E37469A6E002C08BF4F
:101960002F46C2F38462BA420CD19A6E22F0004232
:101970009A660A6802EA0E04C2F3846592FAA2F239
:10198000B2FA82F6DA6E002CDA6E08BF2E46C2F387
:101990008462B2423AD070E0DA684C69DD68D206FF
:1019A0004FEA55050AD405F00E0209E006224FF071
:1019B000004902EA960205FA02F72FE005F0080254
:1019C00004FA02F90C694F46042C27D11A6E0C68F0
:1019D00002F0F842A406A24240F082801A6E22F081
:1019E00000421A665A6E02F0F842A24200F07E806F
:1019F0009A6E02F0F842A24203D19A6E22F000429F
:101A00009A66DA6E02F0F842A24236D1DA6E22F01D
:101A10000042DA669A68D20733D0B8E003F1600674
:101A20000A68434502F0F84256F8245042EA090297
:101A300018BF05F00047434542EA070246F8242054
:101A40000C695FD091F821200D7E56F8247027F0A4
:101A50000047012A08BF07F100476A1EB2FA82F266
:101A600046F8247052090C69D2021D6904F01F0463
:101A700025F4F045A2402A431A619A68D20740F043
:101A80008680ACF51672434518BF03F1C002CD68DD
:101A90000C6805F01805166804EA0E072EFA05F51D
:101AA000BE432C40344314600024CA68C4F2FF745F
:101AB000A24268D10C6814EA0E0F3FD094FAA4F247
:101AC000B2FA82F2013202F01E07092F02F01F075C
:101AD0003DD8012207EB4706BA4042EA065742E0EA
:101AE0005A6E02F0F842A2427FF482AF5A6E22F0A0
:101AF00000425A669A6E02F0F842A2423FF47DAF6D
:101B00007FE700BFACF52A72CD6952F8246026F059
:101B10008076354342F824500C6991F8205052F8F1
:101B20002460012D26F0007608BF06F1007642F809
:101B300024609A68D207A4D029E000BF012202EBFA
:101B4000946202F01E070A2F02F01F07C1D3012280
:101B500007EB4706BA400027CFF6206707EB06578A
:101B60003A4342F00077C7F340620725C7F30457B2
:101B70008E6803EB8202BD40546906FA07F724EA37
:101B800005052F4357610E68B6F1FF3F02DD0021C6
:101B900049E000BF42F2000142F20015C4F2020126
:101BA000C4F2020501F5807201F542779342624664
:101BB00008BF3A468B4208BF3A4643F48077AF42AB
:101BC000156823D18A68D1F808111143C90725D1B6
:101BD000002105F0E074CCF252718E4208BF15F47A
:101BE000000127D00021CCF221318E4260D10021AA
:101BF000B1EB146F5CD1434515D1DCF8001021F036
:101C0000E071214341F0807165E000BF4FF6005163
:101C1000CFF6FF715CF80110C907D9D0016E41F011
:101C2000200101660121002280F85C20084601B0F5
:101C3000BDE8F0834345AAD1DCF8001042F66352B8
:101C400021F0E071C0F23E52214341F40001CCF892
:101C5000001040F22401C2F2004109688909A1FB89
:101C600002129109022202EB410100910099002920
:101C70008DD0009901390091009900293FF487AF78
:101C8000009901390091009900293FF480AF009933
:101C900001390091009900293FF479AF0099013989
:101CA0000091009900294FF00001E2D1BBE700BF8D
:101CB00043454FF00001B6D10022CCF68432964263
:101CC00008BF15F48002AED1DCF8001021F0E071FD
:101CD000214341F48001CCF800100021A3E700006B
:101CE000F0B581B04FF00001009178B3016E39B9C1
:101CF000044600F07DF920460021616684F85C10FE
:101D000001688A6892004FF6C072C5F6FF7202D56C
:101D10008B6813408B608B68DB0032D48B6802F1D8
:101D200080521A4042F6635342F080528A6040F279
:101D30002402C0F23E53C2F2004212689209A2FB92
:101D40000323012202EB931206E000BF0124204688
:101D500001B0F0BD009A013A0092009A8AB1009A4F
:101D6000013A0092009A62B1009A013A0092009AF8
:101D7000002A1FBF009A013A0092009A18BF002A59
:101D8000E8D18A68D20009D4026E012442F0100220
:101D90000266426E42F00102426600E000248A6858
:101DA000036E03F0100302F00402D218026E59D140
:101DB00022F4817246F2100C023202668A68C5F67D
:101DC000020CD20724D142F2001341F48072C4F213
:101DD00002039A4242F20002C4F2020240F0F08092
:101DE0009368D2F808512B43DB0711D102F58073B9
:101DF00002F5427599422B4618BF0CF53E7391428D
:101E000008BF2B4642681D6825F47C152A431A60DA
:101E1000427EC56BACF11006B14245EA423529D08D
:101E200082682A4390F82050012D42EA054506D1E8
:101E3000426A0023CFF6FE7303EB42421543826AE7
:101E400022B102F47872C36A1A431543B1421FD01B
:101E50004CF20303CA68CFF6F0731A402A43CA60F3
:101E600028E000BF42F0100101240166204601B0C5
:101E7000F0BD00BFD0E9022E082A00F0A9800C2A8C
:101E800000F0A4801C2A40F0A5801022A5E000BF2D
:101E900044F207035CF8042CCFF6F0731A402A438F
:101EA0004CF8042CDCF80020436B22F040621A430B
:101EB000CCF800208A688B6802F0040203F0080363
:101EC000D2186AD1027EB1424FEA823226D0036B29
:101ED000CF6844F20305AF433B431A43CA6090F80E
:101EE0004420012A48D14FF61E030A69CFF6004369
:101EF0000125D0E912761A40CFF6FF7505EB0747AA
:101F00003243066D3A43476D3243036C3A430A61EC
:101F10000A6922F070421A430A613AE05CF8043C14
:101F200090F8385044F2030E90F8447023EA0E0300
:101F300043EA4503012F42EA03024CF8042C1BD16B
:101F40004FF61E02DCF80010CFF600421140D0E937
:101F500012231143026D1943436D1143026C19435F
:101F600041F00101CCF80010DCF8001021F07041C4
:101F70001143CCF8001010E00A69B14222F00102CE
:101F80000A610A69036C22F0704242EA03020A61A4
:101F900003D00546FFF778F82846016802690B6B05
:101FA000012A23F00F0202D1C369013B1A430A63DD
:101FB0000122016E62F301010166204601B0F0BD0D
:101FC0005CF8083CDB073FF411AF21E7082204E08E
:101FD000002202E0182A18BF002242EA0E022A4319
:101FE00090F82050012D42EA05453FF421AF26E745
:101FF00080B586B042F200020068C4F202020021FD
:1020000090420591CDE903110291019102D006B0F1
:1020100080BD00BF44F2D840C5F60200026842F01D
:1020200020020260026802F020020092009A826898
:1020300042F004028260806800F004000090009882
:10204000302001900320CDE9020140F6000001A9F3
:10205000C5F6020001F07CFE06B080BD0000000065
:10206000CB0701D10120704710B54FF680734FEABE
:10207000F204C7F6FF7311EA030C18BF4FF0010C0E
:10208000032C0AD840F2000EC7F6FF7EDFE804F00A
:102090001602081011EA0E0310D0012010BD00BF77
:1020A0000EF57F430B401CBF012010BD06E000BFB2
:1020B000BCF1000F02D0012010BD00BF00684161DB
:1020C000816821F0180111438160002010BD0000DB
:1020D000D0B110B50446407F20B9002020772046BB
:1020E00000F036F802206077207978B1D4E9021246
:1020F0002046FFF7B5FF00281CBF012010BD607906
:1021000088B1206911E000BF01207047206841F6C6
:10211000B751C0F2C1414161816821F0180181606D
:1021200060790028EDD14FF0FF302168D4E9052314
:102130000861886820F0600010438860886820F09B
:1021400080001843886001206077002010BD0000E7
:1021500044F2E0410068C5F6020101F5E4629042F4
:1021600018BF704781B0086840F400200860086814
:1021700000F400200090009801B0704700000000BB
:102180002DE9F041044601F0BFFE1CB3054694F86A
:102190003500022822D140F20F472668C4F2020718
:1021A00040F26F48BE426FF00E00C4F202081DDC20
:1021B0006F21C4F202018E422ADC3F21C4F20201E7
:1021C0008E4241DC1021C4F202018E4263D02821EC
:1021D0005CE000BF0120BDE8F08100BF80206065A9
:1021E0000120002184F83410BDE8F08146451BDC55
:1021F00040F23F41C4F202018E422DDC40F2104118
:10220000C4F202018E4246D040F228413EE000BFB7
:102210009F21C4F202018E4228DC7021C4F2020127
:102220008E4238D0882131E040F29F41C4F2020151
:102230008E4223DC40F27041C4F202018E422AD069
:1022400040F2884122E000BF4021C4F202018E42E8
:1022500021D058211AE000BF40F24041C4F20201EF
:102260008E4218D040F2584110E000BFA021C4F2C5
:1022700002018E420FD0B82108E000BF40F2B84101
:10228000C4F202018E4206D040F2A041C4F2020123
:102290008E42314607D13146306820F01E0041F8A9
:1022A000140B6FF080000A68464500EA02000860DF
:1022B0001ADC9F20C4F20200864233DC5720C4F2AD
:1022C000020086425ADC1020C4F20200864200F06E
:1022D00097802820C4F20200864200F091804020BE
:1022E000C4F202008AE000BF45F22F40C5F60200AA
:1022F00086422DDC40F2B740C4F2020086424BDC3D
:1023000040F27040C4F20200864279D040F2884028
:10231000C4F20200864273D040F2A040C4F2020030
:102320006CE000BF40F22740C4F20200864243DC6A
:10233000A020C4F20200864262D0B820C4F202009B
:1023400086425DD040F21040C4F2020056E000BF69
:1023500045F26B40C5F6020086423FDC45F2304054
:10236000C5F6020086424BD045F24440C5F6020055
:10237000864245D045F258403EE000BF5820C4F2A6
:10238000020086423CD07020C4F20200864237D060
:102390008820C4F2020031E040F2B840C4F20200EA
:1023A00086422DD045F20840C5F60200864227D06D
:1023B00045F21C4020E000BF40F22840C4F2020079
:1023C00086421DD040F24040C4F20200864217D03F
:1023D00040F25840C4F2020010E000BF45F26C40E9
:1023E000C5F6020086420BD045F29440C5F60200C5
:1023F000864205D045F28040C5F60200864204D1EF
:10240000206E016821F480710160306820F00100C5
:10241000306000BF3068C00710D001F075FD401B70
:102420000628F7D320206065032084F835000120BA
:10243000002184F83410BDE8F08100BF2068082135
:10244000B8424FF03F0211DC6F23C4F202039842FE
:102450001EDC3F23C4F20203984235DC1023C4F291
:102460000203984257D0282350E000BF40451BDCB0
:1024700040F23F43C4F2020398422DDC40F2104385
:10248000C4F20203984246D040F228433EE000BF27
:102490009F23C4F20203984228DC7023C4F2020393
:1024A000984238D0882331E040F29F43C4F20203BF
:1024B000984223DC40F27043C4F2020398422AD0CF
:1024C00040F2884322E000BF4023C4F20203984256
:1024D00021D058231AE000BF40F24043C4F2020367
:1024E000984218D040F2584310E000BFA023C4F235
:1024F000020398420FD0B82308E000BF40F2A04387
:10250000C4F20203984206D040F2B843C4F2020378
:10251000984240F0C580D4E9163707F01F074045C0
:1025200002FA07F25A5019DC9F21C4F202018842D4
:1025300032DC5721C4F20201884259DC1021C4F276
:102540000201884200F096802821C4F202018842EC
:1025500000F090804021C4F2020189E045F22F4151
:10256000C5F6020188422DDC40F2B741C4F20201F7
:1025700088424BDC40F27041C4F20201884279D0BB
:1025800040F28841C4F20201884273D040F2A04177
:10259000C4F202016CE000BF40F22741C4F2020124
:1025A000884243DCA021C4F20201884262D0B821F3
:1025B000C4F2020188425DD040F21041C4F202012F
:1025C00056E000BF45F26B41C5F6020188423FDC90
:1025D00045F23041C5F6020188424BD045F24441F4
:1025E000C5F60201884245D045F258413EE000BFA1
:1025F0005821C4F2020188423CD07021C4F2020189
:10260000884237D08821C4F2020131E040F2B8415B
:10261000C4F2020188422DD045F20841C5F60201FC
:10262000884227D045F21C4120E000BF40F22841FB
:10263000C4F2020188421DD040F24041C4F20201BE
:10264000884217D040F25841C4F2020110E000BFA6
:1026500045F26C41C5F6020188420BD045F2944127
:10266000C5F60201884205D045F28041C5F6020157
:1026700088420BD1616EA26EE06E4A6030B1016893
:1026800021F480710160D4E91C014160012084F8CB
:1026900035000020002184F83410BDE8F08100BF2F
:1026A0000421012237E70000F0B190F8351002292B
:1026B00018D180B540F20F420168C4F20202914283
:1026C00014DC6F23C4F20203994225DC3F23C4F2D9
:1026D000020399423CDC1023C4F2020399425DD00C
:1026E000282357E0802141650120704740F26F4365
:1026F000C4F2020399421BDC40F23F43C4F20203DE
:1027000099422DDC40F21043C4F20203994245D0B5
:1027100040F228433EE000BF9F23C4F202039942E7
:1027200028DC7023C4F20203994237D0882331E0B9
:1027300040F29F43C4F20203994223DC40F270430B
:10274000C4F20203994229D040F2884322E000BF3C
:102750004023C4F20203994220D058231AE000BF5C
:1027600040F24043C4F20203994217D040F258436A
:1027700010E000BFA023C4F2020399420ED0B82398
:1027800008E000BF40F2B843C4F20203994205D00A
:1027900040F2A043C4F20203994275D191424FF036
:1027A000040280F8352011DC6F20C4F2020081425F
:1027B00022DC3F20C4F20200814239DC1020C4F246
:1027C0000200814259D0282054E000BF40F26F40FF
:1027D000C4F2020081421BDC40F23F40C4F202001E
:1027E00081422DDC40F21040C4F20200814244D00C
:1027F00040F228403EE000BF9F20C4F20200814228
:1028000028DC7020C4F20200814236D0882031E0FA
:1028100040F29F40C4F20200814223DC40F270404B
:10282000C4F20200814228D040F2884022E000BF7A
:102830004020C4F2020081421FD058201AE000BF9D
:1028400040F24040C4F20200814216D040F25840AB
:1028500010E000BFA020C4F2020081420DD0B820D9
:1028600008E000BF40F2B840C4F20200814204D048
:1028700040F2A040C4F202008142086820F001004A
:102880000860002080BD00BF0A6822F00E020A60C6
:1028900045F25742C5F6020291420A6822F001024F
:1028A0000A600FDC45F22F42C5F60202914219DCA4
:1028B00045F20842C5F60202914229D045F21C4277
:1028C00022E000BF45F27F42C5F60202914213DCCE
:1028D00045F25842C5F60202914219D045F26C42C7
:1028E00012E000BF45F23042C5F6020291420FD01D
:1028F00045F2444208E000BF45F29442C5F60202A8
:10290000914205D045F28042C5F6020291421AD1A9
:10291000D0E9181CD0E916E30A6822F480720A6034
:1029200003F01F01012202FA01F1CEF80410816EBA
:10293000CCF80410C16E31B10A6822F480720A60CA
:10294000D0E91C124A60012180F83510016D002287
:10295000002980F8342094D08847002080BD0000F2
:102960002DE9F04782B00021019140F2240148F2A4
:10297000B513C2F20041C1F64E33856D40F26F4986
:102980000A680168C4F202092E68A2FB03284945BF
:102990002A6815DC9F22C4F2020291422CDC5722E5
:1029A000C4F20202914251DC1022C4F202029142AE
:1029B0007BD02822C4F20202914276D040226FE0FE
:1029C00045F22F43C5F60203994229DC40F2B74392
:1029D000C4F20203994245DC40F27042C4F20202A2
:1029E000914262D040F28842C4F2020291425CD02D
:1029F00040F2A04254E000BF40F22742C4F202027B
:102A000091423FDCA022C4F2020291424DD0B82292
:102A1000C4F20202914248D040F2104240E000BFAE
:102A200045F26B43C5F60203994275DC45F230432B
:102A3000C5F60203994200F0828045F24443C5F690
:102A4000020399427BD045F2584373E05822C4F206
:102A50000202914229D07022C4F20202914224D093
:102A600088221DE040F2B843C4F2020399421CD010
:102A700045F20843C5F60203994260D045F21C4373
:102A800058E000BF40F22842C4F2020291420CD04A
:102A900040F24042C4F20202914206D040F2584253
:102AA000C4F20202914240F05383C26D082302F047
:102AB0001F0240F20F4A9340C4F2020A334200F070
:102AC000DE8051454FF0040412DC6F27C4F2020788
:102AD000B9426DDC3F27C4F20207B94200F39C8083
:102AE0001027C4F20207B94200F0BD802827B5E0E4
:102AF000494569DC40F23F47C4F20207B94200F39E
:102B0000938040F21047C4F20207B94200F0AB8054
:102B100040F22847A2E000BF45F26C43C5F602032D
:102B200099420CD045F28043C5F60203994206D083
:102B300045F29443C5F60203994240F009830B68BD
:102B4000C76D07F01F070426BE40164218BF13F0DA
:102B5000040423D10226BE40164218BF13F002041B
:102B600042D1FA40120740F1F38213F0080200F05C
:102B7000EF820A6822F00E020A60012101FA07F2D0
:102B80006A60416580F83510C16C00294FF0000281
:102B900080F8342040F0D882DAE200BF1A046E6078
:102BA00034D49A0636D40A6822F004020A6031E06E
:102BB0009F27C4F20207B94240DC7027C4F2020723
:102BC000B94250D0882749E040F29F47C4F202073B
:102BD000B9423BDC40F27047C4F20207B94242D02E
:102BE00040F288473AE000BF1A046E6000F1B482F8
:102BF0009A0600F1B5820A6822F00A020A600121F1
:102C000080F83510002180F83410A9E2D90301D4EE
:102C1000816C98E2016C96E24027C4F20207B94247
:102C200021D058271AE000BF40F24047C4F2020703
:102C3000B94218D040F2584710E000BFA027C4F2B4
:102C40000207B9420FD0B82708E000BF40F2A04702
:102C5000C4F20207B94206D040F2B847C4F20207F4
:102C6000B94218BF08240F68274208D00F6827F020
:102C700004070F60AB60436D43F00103436501231C
:102C8000934033426FD0514510DC6F27C4F20207E6
:102C9000B9421DDC3F27C4F20207B94234DC1027D9
:102CA000C4F20207B94256D028274FE049451BDC41
:102CB00040F23F47C4F20207B9422DDC40F2104710
:102CC000C4F20207B94246D040F228473EE000BFB6
:102CD0009F27C4F20207B94228DC7027C4F202071A
:102CE000B94238D0882731E040F29F47C4F202074A
:102CF000B94223DC40F27047C4F20207B9422AD03D
:102D000040F2884722E000BF4027C4F20207B942E0
:102D100021D058271AE000BF40F24047C4F2020712
:102D2000B94218D040F2584710E000BFA027C4F2C3
:102D30000207B9420FD0B82708E000BF40F2A04711
:102D4000C4F20207B94206D040F2B847C4F2020703
:102D5000B94240F007824F693F0604D5AB60436D2E
:102D600043F0020343650423934033426FD051453F
:102D700010DC6F27C4F20207B9421DDC3F27C4F202
:102D80000207B94234DC1027C4F20207B94256D018
:102D900028274FE049451BDC40F23F47C4F20207B9
:102DA000B9422DDC40F21047C4F20207B94246D0C6
:102DB00040F228473EE000BF9F27C4F20207B94215
:102DC00028DC7027C4F20207B94238D0882731E0E6
:102DD00040F29F47C4F20207B94223DC40F2704739
:102DE000C4F20207B9422AD040F2884722E000BF6D
:102DF0004027C4F20207B94221D058271AE000BF89
:102E000040F24047C4F20207B94218D040F2584796
:102E100010E000BFA027C4F20207B9420FD0B827C4
:102E200008E000BF40F2A047C4F20207B94206D052
:102E300040F2B847C4F20207B94240F09B810F68E4
:102E4000BF0704D5AB60436D43F004034365102313
:102E500003FA02F2324200F0828051454FF008033B
:102E600010DC6F27C4F20207B9421DDC3F27C4F211
:102E70000207B94234DC1027C4F20207B94256D027
:102E800028274FE049451BDC40F23F47C4F20207C8
:102E9000B9422DDC40F21047C4F20207B94246D0D5
:102EA00040F228473EE000BF9F27C4F20207B94224
:102EB00028DC7027C4F20207B94238D0882731E0F5
:102EC00040F29F47C4F20207B94223DC40F2704748
:102ED000C4F20207B9422AD040F2884722E000BF7C
:102EE0004027C4F20207B94221D058271AE000BF98
:102EF00040F24047C4F20207B94218D040F25847A6
:102F000010E000BFA027C4F20207B9420FD0B827D3
:102F100008E000BF40F2A047C4F20207B94206D061
:102F200040F2B847C4F20207B94218BF04230F6841
:102F30001F4214D0AA600A6852030A6808D4D20556
:102F400008D40A6822F008020A60016C21B906E080
:102F5000110351D4016C11B1044688472046C16D5C
:102F600001F01F02202101FA02F3334200F0AF808A
:102F700001681027514511DC6F26C4F20206B142E8
:102F80001EDC3F26C4F20206B14239DC1026C4F230
:102F90000206B1425BD0282654E000BF49451BDC45
:102FA00040F23F46C4F20206B14231DC40F2104624
:102FB000C4F20206B1424AD040F2284642E000BFC5
:102FC0009F26C4F20206B1422CDC7026C4F202062F
:102FD000B1423CD0882635E040F29F46C4F202065A
:102FE000B14227DC40F27046C4F20206B1422ED054
:102FF00040F2884626E000BF816C0029ACD1AEE7E4
:103000004026C4F20206B14221D058261AE000BF81
:1030100040F24046C4F20206B14218D040F258468F
:1030200010E000BFA026C4F20206B1420FD0B826BD
:1030300008E000BF40F2A046C4F20206B14206D04A
:1030400040F2B846C4F20206B14218BF02270E6829
:103050003E423CD0AB6090F83530042B0B681DD15C
:1030600023F016030B604B6923F080034B61036C64
:103070000BB9836C1BB10B6823F008030B603F2175
:103080009140A960012180F83510016D00294FF0B1
:10309000000280F8342057D15AE000BF5A030A6872
:1030A0000CD4D2050ED40A6822F010020A60012165
:1030B00080F83510002180F8341003E0110301D4AA
:1030C000416C00E0C16B11B1044688472046416D58
:1030D00000293DD0416DC90734D0042180F8351056
:1030E00001684FEA98220B6823F001030B60019BF3
:1030F0000133019393421AD80B68DB0717D0019B69
:1031000001330193934212D80B68DB070FD0019B68
:103110000133019393420AD80B68DB0707D0019B68
:1031200001330193934202D80B68DB07DFD10968B2
:10313000C9074FF0030108BF012180F835100021B5
:1031400080F83410C16C19B102B0BDE8F0470847EF
:1031500002B0BDE8F08700BFD90301D4416CF2E7AB
:10316000C16BF0E70B680423934033427FF4FFAD5B
:103170006DE600BF0B686AE62DE9F041044600F0F9
:10318000C3FEFCB140F26F4805462068C4F2020855
:1031900040451BDC9F21C4F20201884232DC5721EA
:1031A000C4F20201884259DC1021C4F202018842B3
:1031B00000F083802821C4F20201884200F07D8063
:1031C000402175E00120BDE8F08100BF45F22F41AC
:1031D000C5F60201884229DC40F2B741C4F202017F
:1031E000884247DC40F27041C4F20201884264D058
:1031F00040F28841C4F2020188425ED040F2A04110
:1032000056E000BF40F22741C4F20201884241DC8F
:10321000A021C4F2020188424FD0B821C4F20201B9
:1032200088424AD040F2104142E000BF45F26B4173
:10323000C5F60201884200F3D18045F23041C5F65F
:103240000201884200F0DD8045F24441C5F60201EA
:10325000884200F0D68045F25841CDE05821C4F2B2
:103260000201884229D07021C4F20201884224D090
:1032700088211DE040F2B841C4F2020188421CD00E
:1032800045F20841C5F60201884200F0BA8045F2D5
:103290001C41B1E040F22841C4F2020188420CD046
:1032A00040F24041C4F20201884206D040F2584147
:1032B000C4F20201884240F03981022184F83510BD
:1032C000002184F83410016821F00101016000BF81
:1032D00020680168C9070DD000F016FE401B0628C3
:1032E000F6D320206065032084F835000120BDE876
:1032F000F08100BF48F23F0204F108060168CFF6F2
:103300001062114065694CCE1143A2691943E3690B
:103310003143266A0D43616A2B43042943EA0603BD
:1033200043EA020303D1D4E90B652E4333436568B6
:10333000A5F12906292E00F23182DFE816F02B00D4
:103340002B002B002B002B002B002F022F022F0213
:103350002F022F022F022F022F022F022F022F02E5
:103360002F022F022F022F022F022B002B002B00E7
:103370002B002F022F022F022F022B002B002F02D7
:103380002F022F022F022F022F022B002B002B00C7
:103390002B0000BF43F4801303600429436923F02A
:1033A000070341EA030140F0DD80D4E90A53002B12
:1033B00041EA050100F0D680B2F5005F00F0B88068
:1033C000002A40F0C180022D00F0C180012D00F0E4
:1033D000B580002D00F0BB80C4E000BF45F26C4119
:1033E000C5F6020188420CD045F28041C5F60201C3
:1033F000884206D045F29441C5F60201884240F069
:10340000958004F1080E022184F83510002184F81B
:1034100034100168A3699EE80450A2F18005E769B1
:10342000B5FA85F566696D09402A4FEA853543EAA4
:1034300007026FF3101142EA060208BF102541EAA5
:10344000DC0142EA0E02236A294341EAD20141EA41
:10345000131140F80819C0B2CD2148433C2101EABC
:103460009020E0652046FEF7B7F8E16D012201F0FB
:103470001F0102FA01F141602068404500F381809C
:103480009F21C4F20201884214DC5721C4F20201D8
:10349000884227DC1021C4F20201884200F0C78074
:1034A0002821C4F20201884200F0C1804021C4F208
:1034B0000201B9E040F22741C4F20201884221DC56
:1034C000A021C4F20201884200F0B180B821C4F208
:1034D0000201884200F0AB8040F21041C4F20201C8
:1034E000A2E000BF5821C4F20201884200F09F8090
:1034F0007021C4F20201884200F099808821C4F250
:10350000020191E040F22841C4F20201884200F039
:103510008E8040F24041C4F20201884200F0878070
:1035200040F25841C4F202017EE000BF4020D9E6DB
:10353000032D17D8DFE805F00E0B0E02A3F1C072C1
:10354000B2FA82F2520904E0032D03D30AD1C3F385
:1035500000623AB140206065012084F83500BDE882
:10356000F08100BF41612046FEF736F8E16D3F2251
:1035700001F01F0102FA01F18160206840457FF7E8
:103580007FAF45F22F41C5F60201884216DC40F2BA
:10359000B741C4F20201884226DC40F27041C4F215
:1035A0000201884243D040F28841C4F202018842BD
:1035B0003DD040F2A041C4F2020135E045F26B413A
:1035C000C5F6020188421FDC45F23041C5F6020112
:1035D00088422CD045F24441C5F60201884226D0EB
:1035E00045F258411EE000BF40F2B841C4F202016A
:1035F00088421CD045F20841C5F60201884216D027
:1036000045F21C410EE000BF45F26C41C5F60201D7
:1036100088420CD045F29441C5F60201884206D09A
:1036200045F28041C5F60201884240F0E18045F252
:10363000574C45F6FC0EC5F6020CC5F6020E604569
:103640000EDC45F22F41C5F60201884218DC45F236
:103650000841C5F60201884228D045F21C4121E00C
:1036600045F27F41C5F60201884213DC45F258411C
:10367000C5F60201884219D045F26C4112E000BF44
:1036800045F23041C5F6020188420FD045F244416F
:1036900008E000BF45F29441C5F60201884205D01A
:1036A00045F28041C5F60201884247D100F0FC0195
:1036B0004CF6CD420839CCF6CC42A1FB0212AEF159
:1036C000FC05AEF17C061309A26803F01F01802AF5
:1036D0004FF0010205EB8305256602FA01F26666EA
:1036E000A26605D100206060286072601EE000BF05
:1036F0006368D9B25F1E072F2960726016D84E1E0C
:10370000082E19D260450EF1440237DC45F22F41F4
:10371000C5F60201884249DC45F20841C5F60201BE
:10372000884259D045F21C4152E000BF002060673A
:10373000C4E91B005CE000BFE06E54E000F0F8015B
:103740004AF6AB221039CAF6AA22A1FB021240F2B5
:103750000F43C4F2020308251109984203F1AA0697
:103760000B4688BF05EB121340F60005B042C4F2C9
:10377000020505F1800628BF0B46A5E745F27F410B
:10378000C5F6020188421BDC45F25841C5F602012C
:10379000884221D045F26C411AE000BF25F00307B2
:1037A000742F08BF43F48013F6E500BF45F23041A3
:1037B000C5F6020188420FD045F2444108E000BF3F
:1037C00045F28041C5F60201884205D045F2944198
:1037D000C5F60201884213D10EEB83000121E06699
:1037E000B1402267616700210160D4E91C0141609A
:1037F00000206065012184F83510BDE8F08100BF2C
:1038000040F60000C4F2020000F1FC0E00F5A072C8
:10381000E2E7000000000000B0B5044600F074FBD1
:1038200040F21C010546C2F20041621C097818BF33
:103830000C4400BF00F068FB401BA042FAD3B0BDAF
:10384000F0B12DE9F04F83B04AF200080446C4F20B
:1038500000080068404533D094F89810B9B38169E6
:1038600021F01001816100F04FFB0546206881695D
:10387000090707D500F048FB401B0B28F6D312E0E0
:1038800001207047816941F00101816100F03CFB3A
:10389000054600BF20688169C90721D100F034FBCB
:1038A000401B0B28F6D30120D4F89C100843C4F821
:1038B0009C00032084F89800012003B0BDE8F08F3D
:1038C00008F58071616094F898100029C7D1002034
:1038D00084F89900204600F0B3F92068BFE700BFE4
:1038E000816941F002018161217C826922F04002FC
:1038F000012918BF40328261617C826922F48042D2
:10390000012908BF02F580428261A17C826922F40C
:103910008052012918BF02F580528261816921F429
:103920004073D4E902120B438361836923F0A4033B
:103930008361036923F0100303619AB1012A0DD05A
:10394000022A09D08369032A43F080038361036953
:1039500043F01002026105D1202200E004228369B5
:103960001A438261D4E90572E369561E6FF0FF02C3
:10397000256A02EB0323B1F5407F43EA4663A5F1D4
:10398000010646EA030640F20003CFF6FF7303EB9D
:10399000074746EA0701C16110D1D4E90B65D4E9B4
:1039A0000917013F02EB06226FF00F063A4306EBC0
:1039B00005173A4303EB01411143C160236E2BB15C
:1039C000616ED0F8C0201143C0F8C010E16DCDE9A0
:1039D0000113D94243F23421C0F6010109D0D0F8D5
:1039E000C820A36E22F0070251F823301A43C0F812
:1039F000C820D4F840C0BCF1000F09D0D0F8BC20DA
:103A0000636C22F0070251F823301A43C0F8BC203F
:103A1000D4F848B0BBF1000F0AD0D0F8BC20E36C5A
:103A200022F0700251F8233042EA0312C0F8BC20A1
:103A3000D4F850A0BAF1000F0AD0D0F8BC20636DC2
:103A400022F4E06251F8231042EA0121C0F8BC10D0
:103A5000404504D161688A6822F003028A6000212F
:103A6000C4F89410C4F89C10012184F8981004F153
:103A70003409D0F884104FF6FC729143656C99E8D4
:103A80000C02009541EA8201C0F88410D0F884103D
:103A900021F47F0141EA0341C0F884109918D0F85D
:103AA00088306FF38F0343EA8103C0F88830D0F881
:103AB000883023F4FE0343EA0943C0F8883001EB61
:103AC0004903D0F8A0606FF38F0646EA8306C0F87A
:103AD000A060D0F8A06026F4FE0646EA0C46C0F8C6
:103AE000A06005FB0C36D0F8B0306FF38F0343EACB
:103AF0008603C0F8B030D0F8B03023F4FE0343EAB8
:103B00000B43C0F8B030E36CD0F8AC506FF38F05C6
:103B100003FB0B6645EA8605C0F8AC50D4F8548028
:103B200008FB0A65D0F8F0606FF38F0646EA850659
:103B3000C0F8F060D0F8F0E0A66D2EF47C1747EAEC
:103B40000647C0F8F070F70007EB8507D0F8C050C3
:103B50006FF38F052F43C0F8C070D0F8C070009D80
:103B6000DDF804E027F47C1705FB0CFC4AF20005A5
:103B700047EA0E47C0F8C070C4F2000503FB0BC350
:103B800005F54067D0F8C05007EB820207EB8101D2
:103B900025F07C57029D47EA0567C0F8C07001EB2D
:103BA000C90008FB0A372167A16E00EB8C0C606727
:103BB00000EB8303E266C4E91EC30EFB01F300EBD6
:103BC00087006943C4F8800000EBC600C4F8840095
:103BD00000EB8300C4F8880000EB81004DF2FC315B
:103BE000C4F20001C4F89000884201D920205BE6AD
:103BF00082421FD21146002041F8040BD4F89030C5
:103C00009942BFF45AAE506002F10801D4F89030E6
:103C100099423FBF906002F10C01D4F89030994274
:103C2000BFF44BAED0601032D4F890108A42E1D38A
:103C300043E600BF002003B0BDE8F08F00000000A5
:103C4000B0B5B6B0044602A8B8210025CDE9345578
:103C5000CDE932553195FCF7AEFD4DF200412068BB
:103C6000C4F20001884233D04AF20001C4F20001DC
:103C7000884268D1002003904FF40040029002A8CF
:103C800002F012FB08B1FDF73FFD40F2D87144F29B
:103C9000E040C2F20041C5F602000A68002A02F1C3
:103CA00001020A6008D1C16841F48071C160C16835
:103CB00001F4807101910199016841F008010160EE
:103CC0000068032100F008000190019809202CE011
:103CD0004FF40040029002A8039502F0E5FA08B103
:103CE000FDF712FD40F2D87144F2E040C2F200410B
:103CF000C5F602000A68002A02F101020A6008D132
:103D0000C16841F48071C160C16801F480710191A2
:103D10000199016841F00801016000684FF44051C9
:103D200000F00800019001980520359040F6004011
:103D30003191022132910021CDE93311C5F6020003
:103D400031A900F005F836B0B0BD00000000000059
:103D50002DE9F04F83B00F68002F00F0C98000F10B
:103D6000264642F2004506F1FF76C5F602050A2214
:103D7000A8424FEAB62540F2040C08BF092200F120
:103D800020030093082DC5F6000C38BF4FEAB62279
:103D9000002400264FF0000801920AE008F1010813
:103DA0000F6837FA08F206F1020604F1040400F085
:103DB0009F80012202FA08FE17EA0E09EED0D1F820
:103DC00004B003220BF00307B2407D1E6FEA020A23
:103DD000012D11D88268CD6802EA0A02B5402A4353
:103DE0008260CBF30015426822EA0E0205FA08F55C
:103DF0002A43426004E000BF032F01D103271FE0E4
:103E0000C2688D6802EA0A02B540022F42EA050242
:103E1000C26015D16FF0030204F01C0502EA580BD2
:103E2000009A0F2352F80BE0AB400F692EEA030310
:103E3000AF403B4342F80B30D1F804B00BF003071E
:103E4000026807FA06F302EA0A021BF4403F42EA5C
:103E500003020260A2D044F2F44340F2084EC5F6D9
:103E60000203C5F6000E0F251A6842F002021A601E
:103E70001A6802F00202029228F00302029B04F088
:103E80000C0352F80E709D40AF43019D05FA03F3F9
:103E90003B4342F80E304FF0B04EDEF800204B6846
:103EA00042EA0907DD0258BF22EA09079D02CEF85F
:103EB0000070DCF8002042EA090758BF22EA09072F
:103EC0009D03CCF80070DCF8802042EA090758BF57
:103ED00022EA0907DB03CCF88070DCF87C2042EA98
:103EE000090758BF22EA0907CCF87C7056E700BFE3
:103EF00003B0BDE8F08F0000002A08BF090481610B
:103F0000704700000000000043F28C00C2F2004045
:103F1000006870470000000040F21C0043F28C0172
:103F2000C2F20040C2F2004100780A681044086002
:103F3000704700000000000080B5032000F0FCF88E
:103F400003F0A6F844F2184143F28C23C5F60201AF
:103F5000C0F601030A68C2F303229A5C096801F003
:103F60000F0102F01F02595CD04040F22802C2F259
:103F7000004201F01F0120FA01F1116040F224011A
:103F8000C2F2004108600F2000F00AF800281CBFB0
:103F9000012080BD00F07CF8002080BD0000000002
:103FA000B0B540F21C05C2F200452978F1B10446D3
:103FB00040F22400C2F200404FF47A72B2FBF1F1F9
:103FC0000068B0FBF1F004F07FF80F2C01464FF0D1
:103FD00001000AD8002918BFB0BD4FF0FF30002201
:103FE000214600F079F800206C60B0BD0120B0BD22
:103FF00010B54EF6A05E4378CEF2000E90F800C0E9
:104000004EF8083CDEF8003023F00103CEF8003013
:1040100043684EF8043C037BC27A817A447B1206E3
:1040200042EA0372837B42EAC141C27B41EA844196
:10403000447A41EA4341007A41EA024141EA0421DB
:1040400041EA400040EA0C00CEF8000010BD00003C
:104050004EF62450CEF20000BFF35F8F016821F4CA
:1040600080310160002101677047000000000000FE
:104070004EF6245140F00100CEF2000108670868B6
:1040800040F480300860BFF34F8FBFF36F8F7047ED
:1040900081B044F2F440C5F60200016841F002012B
:1040A0000160006800F002000090009801B07047C5
:1040B000002848BF704700F01F01012202FA01F1F9
:1040C0004EF20012C0F34A10CEF2000242F8201065
:1040D000704700000000000070B54EF60C5C4FF019
:1040E000FF36CEF2000C00F1604505F56445DCF8C2
:1040F0000030C3F3022E8EF00703042B28BF0423E5
:10410000BEF1030406FA03F321EA030100F00F03F2
:1041100038BF0024043B0028634406FA04F048BF7B
:1041200003F10C05A14022EA0000084300012870B9
:1041300070BD0000000000004EF60C514FF6FF036A
:10414000CEF200010A681A4060F30A2242F0806051
:1041500040F0FD70086070472DE9F04F8FB04BF2D2
:10416000044A0023C5F2002A0793CDE90333CDE9C1
:104170000533D0F800B0DAF8000000F00303012B9B
:1041800078D10123039300F03003102B77D000F493
:104190004073B3F5807F01D10123059300F4A02380
:1041A00040F2010EB3F5803FC0F2001E70D18303D0
:1041B000734658BF4FF00113069300F0A063B3F1AC
:1041C000807F6AD0DAF8040000F00303012B70D17D
:1041D0000223039300F03003102B6ED000F44073E1
:1041E000B3F5807F01D10223059300F4A02340F2B0
:1041F000020CB3F5803FC0F2010C05D18303634686
:1042000048BF0EF10103069300F0A063B3F1807F75
:1042100005D18001604648BF0EF1010007900024DF
:104220000D94CDE90B44CDE909445AF8040C4FF440
:104230000073DAF80060C00704BF40F22223C0F226
:104240000443F00705D086EA0300800701D4012467
:104250000994F0063AD586EA0300800636D44FF07A
:104260000108CDF8288006F44070B0F5407F34D0C6
:1042700035E000BF00F03003102B7FF488AF01233E
:10428000049300F44073B3F5807F3FF485AF85E776
:1042900000F0A063B3F1807F94D18001704658BFD5
:1042A0004FF001100790DAF8040000F00303012B2F
:1042B0008ED000F03003102B90D10223049300F431
:1042C0004073B3F5807F8ED08FE700BF4FF00008BA
:1042D00006F44070B0F5407F01D101200B90F0034F
:1042E00001910DD586EA0300400309D47146B0035D
:1042F00058BF4FF001110C91F00113D503E000BF3E
:104300000021F0010ED586EA030040010AD472466E
:10431000B00158BF4FF001120D92DAF80400C60741
:104320000BD004E00022DAF80400C60705D080EACA
:104330000306B60701D402240994C60607D580EA0D
:104340000306B60603D44FF00208CDF8288000F427
:104350004076B6F5407F01D102260B9645F2000566
:10436000C603C5F2002509D580EA0306760305D405
:104370006146870348BF0EF101010C91C60109D5C2
:1043800043405B0106D4800148BF0EF1010C624638
:10439000CDF834C00092BBEB05002B6818BF01209C
:1043A000DB07ABEB050303D1AC46002606E000BFFC
:1043B0002E68AC4626F001062E6001264AF2000760
:1043C000C146C5F200273D68ED07B3FA83F503D176
:1043D0000296B84607E000BF3B68B84623F00103E9
:1043E0003B600236029600EB400003AB6D0903EB25
:1043F000C00086680AEB860656F804EC2EF4807737
:1044000046F8047C5AF8047CFF0729D10468C646A4
:10441000002C55D00AEB840757F8046C26F00106EF
:1044200047F8046C44683CB10AEB840757F8046C05
:1044300026F0100647F8046CC4683CB10127A74376
:104440005AF8276026F480364AF827600069B8B326
:10445000012727EA00005AF8207027F080772DE026
:104460005AF8040CE345C64620F001004AF8040C53
:1044700026D10AEB8400B9F1000F50F8047C47F014
:10448000020740F8047C07D00AEB890050F8047C4E
:1044900047F0200740F8047C39B1012088435AF8DE
:1044A000207047F480274AF82070009840B101201E
:1044B000009988435AF8207047F080674AF82070C6
:1044C00005EB4500019903EBC00453F83000D1E936
:1044D00000368342656813D1AE422B461FD1CB68AC
:1044E000E768BB421AD10B692769BB42334616D134
:1044F0005AF8040C40F001004AF8040C3FE000BFF9
:10450000AE4233460BD08B68A768BB4204D0CB6861
:10451000E768BB4240F014812B4600E033460AEBCB
:10452000800050F8047C27F0010740F8047C3BB180
:104530000AEB830050F8043C23F0100340F8043CDD
:10454000D4E902300AEB830353F8047C27F4807724
:1045500043F8047C40B1012323EA00005AF82030DC
:1045600023F480334AF82030206940B1012323EA44
:1045700000005AF8203023F080734AF82030886811
:104580004FF48073E3450AEB800050F8047C18BFB9
:104590004FF4407327F440773B4440F8043C4869AB
:1045A0005AF8043C471EC3F307439F420BD9002728
:1045B0005AF8043CCFF6FF7723F47F0307EB004063
:1045C00018434AF8040C5AF8043C08680138DB0721
:1045D0005AF82070029E27F0030327D10127E345F4
:1045E00018BF03273B434AF82030486860B10AEB04
:1045F00080001023E34550F8047C18BF302327F0D7
:1046000020073B4340F8043CC868C30326D4A8B342
:104610000123E34523EA00004FF080735AF820702D
:1046200027F0E06718BF4FF0A06324E043F00103D8
:104630004AF82030486840B10AEB8000012750F862
:10464000043C67F3051340F8043CC868C30329D44D
:10465000A8B34FF080736FF0E06427E00123E345D7
:1046600023EA00004FF480335AF8207018BF4FF44B
:10467000A02327F4E0273B444AF820300869C1030F
:104680002AD4002842D00121E34521EA00004FF05E
:1046900040715AF8203023F0E06318BF4FF0E0611A
:1046A00027E000BF4FF480336FF4E024012727EAAE
:1046B00000005AF8207027403B434AF82030086930
:1046C000C10319D410B30121032321EA00005AF8D1
:1046D000201063F31A6117E00121E34521EA00008D
:1046E0004FF440315AF8203018BF4FF4E02123F442
:1046F000E023194408E000BF0121032321EA000060
:104700005AF8201063F312414AF82010F00705D13F
:10471000B0070BD400200FB0BDE8F08FDCF800002C
:1047200040F00100CCF80000B007F3D5DEF800003F
:1047300040F00100CEF8000000200FB0BDE8F08F7F
:104740000B692769BB422B467FF419AFE7E60000EF
:10475000F0B581B00446FFF7D7FB002C00F089804C
:10476000054600206065216D11B101B0F0BD00BFAC
:10477000204600F081F8206804F10C0C41F28836E4
:10478000A6654FF6F40E00279CE806108368CFF666
:10479000E00ECFF6FF7703EA0E0307EB0242194360
:1047A0006FF0FF07636B114307EB0C221943E369BA
:1047B000114319438160C168226A21F4E021114349
:1047C000C160216BA26B42EA01410161E16B416171
:1047D0000168626821F4F85107EB0222114301607D
:1047E000016A890609D500BFFFF78EFB401BB04266
:1047F00038D82068016A8906F6D4C168A268D4E96D
:10480000097621F0FF01013FA3693943C160022B02
:10481000016821F0400141EA02010160D0F808116D
:10482000E26A21F0A04141EA060141EA0201C0F832
:104830000811016841F00101016003D1816841F074
:1048400002018160E068B0F1806F05D10120206530
:10485000002001B0F0BD00BF02202065002001B0A3
:10486000F0BD00BF4FF400702065606D40F00100A6
:104870006065012001B0F0BD2DE9F043B5B00446FC
:1048800002A80830B02100253095CDE93355CDE997
:104890003155FBF790FF4AF200012068C5F2002174
:1048A000884203D035B0BDE8F08300BF4FF0007000
:1048B000029002A8039501F0F7FC08B1FCF724FF71
:1048C00044F2E04040F20044C5F60200C5F602049E
:1048D00030AD4FF0020850F80C1C4FF0000941F4C5
:1048E000001140F80C1C50F80C1C032601F40011B8
:1048F0000191019950F80C1C41F4002140F80C1C66
:1049000050F80C1C01F4002101910199016841F05B
:1049100001010160016801F0010101910199016843
:1049200041F002010160016801F002010191019969
:10493000016841F0100101600068294600F0100094
:10494000019001984820309006203490A4F58060B2
:10495000CDF8C480CDF8C8903396FFF7F9F930A9A7
:1049600001203396042781E8010320462946349725
:10497000FFF7EEF930A82946339680E88003092036
:1049800034902046FFF7E4F930A94FF400603396E5
:1049900081E801030B20349004F540602946FFF7BD
:1049A000D7F930A94FF48050339681E801030C20E9
:1049B000349020462946FFF7CBF935B0BDE8F083A7
:1049C00001680122C0F8D824002280F8CC2488692C
:1049D00040F000608861486D40F08052002042F055
:1049E00003024A65704700007047000000000000A5
:1049F00002680020516270472DE9F043D0F8008032
:104A0000D8F8243091B1D8F82870B1F1010C03EB3B
:104A100017414FD05FFA8CF30CF0030E042B08F50E
:104A200082730BD2002700242BE000BF002043EA52
:104A30000241C8F82810BDE8F08300BF0CF0FC0963
:104A400008F1F406002400BF56F8107F44F001007E
:104A5000C0B244F00305EDB201EB174144F0020788
:104A600053F82000FFB2043401EB104053F8271034
:104A700053F82550E7B200EB11404F4500EB1541CC
:104A8000E2D1BEF1000F15D053F82700BEF1010F9F
:104A900001EB10410ED0601CBEF1020FC0B253F802
:104AA000200001EB104105D0A01CC0B253F820003B
:104AB00001EB104108EB8C0041EA0241C0F80411FF
:104AC0000020BDE8F0830000D0F8E00409F0D8BC75
:104AD00001EBC10200EB8202D0F8E004126A09F097
:104AE0003BBC00000000000001EBC10200EB8202B1
:104AF000D0F8E004D2F8602209F08ABC000000007F
:104B0000D0F8E00409F0C0BC10B501F00F0E0A4661
:104B10004FFA82FCD2090EEBCE01BCF1000F00EB84
:104B2000810303F5157148BF03F1140190F8943423
:104B30004A70012B81F800E002D1022010BD00BFB5
:104B4000012280F894240268044610460AF0B0FA64
:104B5000002084F8940410BDB0B5037901F00F0271
:104B60009A4201D90120B0BD4CB202EBC2038C467F
:104B7000002C00EB830303F515714FEADC1448BFEA
:104B800003F1140190F894344C700024012B8C70C4
:104B90000A7001D10220B0BD012280F8942402687D
:104BA000054610460AF074FD204685F89444B0BDD1
:104BB00001F00F0101EBC10100EB8100D0F86802A8
:104BC000704700000000000010B54FFA81FCBCF1F6
:104BD000000F01F00F0C0CEBCC0123D400EB810E85
:104BE00000218EF855120EF515718EF854C2CEF8CC
:104BF0005C228EF85832022B01D100224A7190F8C3
:104C00009424012A02D1022010BD00BF012280F8A5
:104C100094240268044610460AF0DEF8002084F866
:104C2000940410BD00EB81014FF0010E01F814CF88
:104C300081F801E08A600B71A1F81AC0022BDCD068
:104C4000DDE700000000000080B501F00F0C0CEB68
:104C5000CC0100EB810E0021CEE998238379CEF8B8
:104C600068128EF855120EF51571012B8EF854C28C
:104C700008BFCA6100681A460AF056FD002080BDD0
:104C8000B0B5027901F00F0494424FF001022DD823
:104C90004FFA81FC01EBC10304EBC405BCF1000F2A
:104CA00000EB830303F5157300EB850548BF05F1A1
:104CB000140390F89454C9095970012D9A701C700E
:104CC00002D10220B0BD00BF012180F89414054636
:104CD000006819460AF008FD2CB9A979286805F280
:104CE0009C420AF0A5FC002285F894241046B0BD31
:104CF00080B501F00F0C90F806E00CEBCC01BEF192
:104D0000010F00EB810101F814CF4FF0000C0B6193
:104D10004FF00103CA60C1F814C04B7008BFCA61EC
:104D2000006872460AF000FD002080BD000000000F
:104D30002DE9F04F87B00568824628460AF004FF47
:104D400010B107B0BDE8F08FDAF800000AF02CFFD0
:104D50000028F6D0D5F80808C0F30D20CAF8D4040E
:104D6000DAF800000AF020FF8007DAF8000003D527
:104D7000416901F00201416105F5006105910AF008
:104D800013FFC006DAF80000069535D5816921F0D9
:104D9000100181612C6A04F00F0000EBC001C4F324
:104DA00043400AEB8101062801F5157512D002284F
:104DB0001BD147F6F07014EA000616D03409E968F2
:104DC000069822460AF0F4FEE86800EB1610E86048
:104DD00008E000BF0AF29C41082206980AF0E8FEAB
:104DE000C4F30A14686920446861DAF80000816934
:104DF00041F010018161069D0AF0D6FE000340F1EA
:104E0000F980DAF800000AF0ABFE002800F0F2802A
:104E100006464FF4306800244FF0000B0AF29C4025
:104E2000049008E00BF1010B760808F1200804F16A
:104E3000240400F0DF80F007F4D05FFA8BF9DAF891
:104E4000000049460AF0A8FE0746C00761D005EBFE
:104E5000080001218160DAF8000008EB0001036C12
:104E60008A689AF80650012D26D1150734D4950684
:104E700000F1B88043F20B05C4F65475AB42069DB1
:104E800002D312F4004231D10AEB0402D2F8743298
:104E900009696FF3DF41A3EB0101C2F86812A4BBFB
:104EA000D2F86432002B00F0A380D2F860020844EC
:104EB000C2F8600229E000BF43F20B05C4F6547546
:104EC000FF35AB4218D11004069D0FD490061CD5B7
:104ED0002020886019E000BF43F20B00069DC4F655
:104EE0005470834215D312F4004012D04FF40040A6
:104EF000886038070FD43DE0069D34B9DAF86412B3
:104F000019B90021049A0AF093FB50464946FFF76D
:104F1000EBFD38072ED505EB08000821816043F230
:104F20000B01DAF80000C4F65471056C40448D4260
:104F300081680BD311F4004108D04FF40041816027
:104F4000504600F06DFD069D0AE000BF504600F09F
:104F500067FD43F20B00C4F654708542069D09D3E9
:104F60009AF80600012805D1DAF800000121049A18
:104F70000AF05EFBF80607D4B8070BD4B80624D4B1
:104F8000B8047FF54FAF27E005EB080010218160E2
:104F9000B807F3D56869000604D50599486840F458
:104FA000806048600AEB040090F85712012906D18E
:104FB000002180F857125046494600F07DFB05EB72
:104FC000080002218160B806DAD505EB080020212F
:104FD0008160B8047FF526AF05EB08004FF400515F
:104FE00081601FE720208860069D380793D4C1E7C1
:104FF000012187E7DAF800000AF0D6FD400340F10E
:10500000E180DAF800000AF0A3FD002800F0DA8061
:105010000646069800F5106900250AF11400049070
:105020000AF29C400290CDF80C9004E0760805F15D
:10503000010500F0C780F007F8D0EFB2DAF8000001
:1050400039460AF095FD0446C0070BD1200735D438
:10505000E00639D460063DD4A00741D42006E5D54A
:1050600058E000BF059B05F00F004FF0010C09EB65
:1050700045120CFA00F0596B21EA00005863C2F89F
:1050800008C09AF80600012812D105EBC500049962
:1050900001EB8000D0E902121144C16045B90069FA
:1050A00030B9DAF800000121029A0AF0C1FA00BF13
:1050B00050463946FFF70CFD2007C9D509EB4510CE
:1050C00008218160E006C5D509EB451010218160FB
:1050D0006006C1D509EB451040218160A007BDD510
:1050E000069829460AF0C0FC05EBC500049901EBBF
:1050F000800010F8031F012905D1002101705046DE
:10510000394600F0D5FA09EB4510022181602006EE
:105110007FF58CAF05EBC500049901EB8008D8E959
:1051200004108142FFF482AFDAF800400A1AD8F87E
:1051300008309A4238BF134604EB451203F1030CC2
:10514000D2F818399BB2B3EB9C0F2BD302F5106940
:10515000D8F81010814223D9081A9AF80620D8E905
:1051600002B1584538BF8346009220461FFA8BF3A0
:105170003A460AF0C9FFD8F80C00D8F81410584481
:10518000C8F80C0001EB0B00C8F814000BF1030188
:10519000D9F8182092B2B2EB910FD9D2D8F81010EA
:1051A000DDF80C9081423FF641AF05F00F00012180
:1051B00001FA00F0D4F8341821EA0000C4F83408E9
:1051C00034E700BFDAF800000AF0EEFC00280DD446
:1051D000DAF800000AF0E8FC000526D4DAF800004E
:1051E0000AF0E2FC000131D43CE000BF05994868B8
:1051F00020F0010048609AF8CC04012808D1002072
:105200008AF8CC0400215046FFF7EEFB03E000BF14
:10521000504600F0E9FBDAF80000416901F0004176
:1052200041610AF0C1FC0005D8D505988068C00727
:1052300002D0504600F01CFCDAF80000416901F48D
:10524000006141610AF0B0FC00010BD5DAF8000002
:10525000416901F0006141619AF8CC1491B1504666
:1052600000F006FCDAF800000AF09EFCC0041AD434
:10527000DAF800000AF098FC8004DAF8000000F187
:105280000D8126E101218AF8CC14406DC0F3830022
:10529000CAF8D0045046FFF7A7FBDAF800000AF07E
:1052A00083FCC004E4D50599486820F001004860FB
:1052B000DAF8000010210AF0D7FB9AF80400010682
:1052C00000F0BB80C1B200F00300042902D200212B
:1052D00068E000BF6FF06002002302EA41124FF65F
:1052E0007F370021069C00BFE61880339A4201F107
:1052F0000401C6F80879D6F8005925F40015C6F857
:105300000059C6F8087BD6F8005B25F40015C6F8EE
:10531000005BD6F8005B45F00065C6F8005BC6F898
:105320002879D6F8205925F40015C6F82059C6F872
:10533000287BD6F8205B25F40015C6F8205BD6F84C
:10534000205B45F00065C6F8205BC6F84879D6F8C2
:10535000405925F40015C6F84059C6F8487BD6F8E0
:10536000405B25F40015C6F8405BD6F8405B45F07D
:105370000065C6F8405BC6F86879D6F8605925F430
:105380000015C6F86059C6F8687BD6F8605B25F44E
:105390000015C6F8605BD6F8605B45F00065C6F89E
:1053A000605BA1D1002848D0069A4D0102F5106338
:1053B00002F5306203EB41164FF67F3702EB4114E2
:1053C0000128B7605E5926F400165E51A760565951
:1053D00026F400165651565946F0006656512CD008
:1053E0004E1C02284FEA461403EB461502EB461604
:1053F000AF601D5925F400151D51B760175927F4EA
:1054000000171751175947F00060105115D0881C2C
:105410004FF67F36470103EB401102EB40108E60E0
:10542000D95921F40011D9518660D05920F40010C7
:10543000D051D05940F00060D051059F84214422C2
:10544000F86940F00110F8619AF80F0000284FF059
:105450000B0008BF142104BF42F22B0010227B581E
:1054600018437850B85840F00B00B85038680AF22A
:105470009C4220F4FE6038609AF80610DAF80000CA
:105480000AF0D6F8DAF80000416901F48051416170
:105490000AF08AFB8004DAF800001AD509F0E0FC73
:1054A000DAF800000AF040FB8AF80700DAF800405A
:1054B00001F066FD9AF80720014620460AF098FDA3
:1054C000504600F079FADAF80000416901F4005121
:1054D00041610AF069FB000706D4DAF800000AF01F
:1054E00063FB00060DD437E0504600F081FADAF88D
:1054F0000000416901F0080141610AF055FB000616
:105500002AD50699886920F0800088619AF80400FD
:10551000022821D30AF515740AF11405012640F278
:105520007B2703E001362437864215D21AF807108C
:105530000129F7D106F00F00320600EBC00005EBA1
:10554000800158BF04EB8001DAF800000AF0FCF992
:105550009AF80400E6E700BFDAF800000AF024FB3E
:10556000C0024FD4DAF800000AF01EFB8002069D4C
:1055700040F180809AF8041002292AD305F53260A0
:1055800001390AF51F72012306E000BF013900F15D
:10559000200002F124021CD007681678012EF5D1F4
:1055A000B7F1FF3FF2DCDAF8D46407F4803706F095
:1055B0000106B742EAD102F8013CAF6947F0800723
:1055C000AF616F693F06E1D40599486840F4007007
:1055D0004860DAF80000416901F4001141610AF005
:1055E000E3FA40004CD55046FFF76EFADAF80000B7
:1055F000416901F0804141610AF0D6FA40077FF528
:10560000A0AB44E09AF80400022827D306990AF1D7
:10561000140401F512650AF13B064FF00108012759
:1056200006E000BF01372035874206F1240615D277
:1056300029687278012AF5D1B1F1FF3FF2DC07F059
:105640000F0086F8008000EBC00004EB8001DAF860
:1056500000000AF079F99AF80400E3E7DAF80000AC
:10566000416901F4801141610AF09EFA8002069DB1
:105670003FF580AFDAF800000AF096FA4000B2D4A5
:10568000DAF800000AF090FA40077FF55AABDAF832
:1056900000004468610704D55046FFF731FADAF894
:1056A000000041682143416007B0BDE8F08F000071
:1056B000D0F8E00408F050BFD0F8E00408F064BF70
:1056C000002800F02781F0B581B0044690F89504D9
:1056D00028B9002084F89404204600F031F9032012
:1056E00084F89504206809F09BFFD4E90001267C2A
:1056F000D4E90223009609F0C3FB002840F004819E
:10570000206800210AF0ACFA002840F0FD8094F8EF
:1057100004E0BEF1000F00F0EE80BEF1040F0EF0C9
:10572000030C4FF0000241D30EF0FC03A4F19000F3
:1057300003250121EE1E80F8A460A0F8BE60AE1E15
:1057400080F8C8606F1CA0F8E2606E1E80F8EC6004
:105750009F42A0F8066105F1040680F8A51080F8C4
:10576000A820C0E92B22C0F8B42080F8C91080F826
:10577000CC20C0E93422C0F8D82080F8ED1080F8A1
:10578000F020C0E93D22C0F8FC2080F8111180F81B
:105790001051A0F82A51354680F81421C0E946225C
:1057A000C0F8202100F19000C4D1F21EBCF1000F1E
:1057B00032D002EBC20104F114000123BCF1010F4D
:1057C00000EB810500F821204FF000016B706A8327
:1057D0002971C5E9021129611ED0551CBCF1020FC7
:1057E00005EBC50600EB860700F826507B707D832D
:1057F0003971C7E9021139610ED0911C012501EB05
:10580000C10200EB820300F8221000205D70598372
:105810001871C3E902001861BEF1000F6BD0BEF130
:10582000040F4FF0000236D30EF0FC000323214694
:10583000DF1E81F854729F1E81F878725F1E81F816
:105840009C725F1C1D1D81F85522874281F85822E9
:10585000C1E99722C1F8642281F8792281F87C227B
:10586000C1E9A022C1F8882281F89D2281F8A022F6
:10587000C1E9A922C1F8AC2281F8C12281F8C03265
:105880002B4681F8C422C1E9B222C1F8D02201F12D
:105890009001CDD1EA1EBCF1000F2CD002EBC20367
:1058A00004F515700021BCF1010F00EB830700F82F
:1058B000232079703971C7E9021139611BD0531C5B
:1058C000BCF1020F03EBC30700EB870600F827309B
:1058D00071703171C6E9021131610CD0911C002741
:1058E00001EBC10200EB820300F822105F701F7110
:1058F000C3E902771F61D4E90001277CD4E90223C0
:10590000009709F035FC38B1022084F89504012095
:1059100001B0F0BD0120704700206074012084F8C0
:105920009504207B012802D12046FFF749F8206822
:1059300009F00EFC002001B0F0BD000000000000E6
:1059400010B5B0B002A9044601F10800B021FAF781
:1059500032FF00212068C4F20401884202D030B036
:1059600010BD00BF002003904FF4802002904FF440
:105970004010239002A800F097FC08B1FBF7C4FE8A
:1059800000F0BAF844F2D8400022C5F602000168DF
:1059900041F0007101600068022100F00070019088
:1059A00001984D20FEF798FB4D20FEF781FB30B0AB
:1059B00010BD00000000000010B50446C07928B1F9
:1059C000022801D0FBF7A0FE012100E00021D4F85D
:1059D000E00408F065FED4F8E004BDE8104008F0EB
:1059E00013BE000000000000D0F8E00408F03CBE48
:1059F000D0F8E00408F044BE90F89424012A01D1C4
:105A00000220704710B5012280F8942441740446A6
:105A1000026810460AF0D8FA002084F8940410BDF9
:105A2000D0F8E02400F29C41104608F051BE00007E
:105A300010B5044690F89404012801D1022010BD4D
:105A40002068012184F89414C168490606D5617B59
:105A5000012903D1816B41F48031816309F0FCFF9E
:105A6000206809F065FB002084F8940410BD000054
:105A700010B50446D0F8E00408F086FE2068D0F89F
:105A8000001E41F00101C0F8001EE07A002808BFA6
:105A900010BD4EF61050CEF20000016841F0060134
:105AA000016010BD00000000B0B544F60C05C5F65D
:105AB000020529684907296806D401F00701081A78
:105AC00018BF0120B0BD00BF21F0070108432860C6
:105AD000FEF71AFA044600BF55F8080C800407D4F4
